:020000040800F2
:1000000000300020C916000831040008330400083D
:100010003504000837040008390400080000000017
:100020000000000000000000000000003B04000889
:100030003D040008000000003F04000841040008DF
:1000400019170008191700081917000819170008D0
:1000500019170008191700081917000819170008C0
:1000600019170008191700081917000819170008B0
:1000700019170008191700081917000819170008A0
:100080001917000819170008191700081917000890
:100090001917000819170008191700081917000880
:1000A0001917000819170008191700081917000870
:1000B0001917000819170008000000001917000898
:1000C00019170008000000000000000019170008C0
:1000D0000000000019170008191700081917000878
:1000E00019170008191700080000000000000000A0
:1000F0000000000000000000000000000000000000
:1001000000000000000000000000000000000000EF
:10011000000000000000000019170008191700086F
:1001200000000000000000000000000000000000CF
:1001300000000000000000000000000000000000BF
:10014000191700081917000800000000000000003F
:10015000000000000000000000000000000000009F
:10016000000000000000000000000000000000008F
:10017000000000000000000000000000000000007F
:0801800000000000191700083F
:1001880010B5054C237833B9044B13B10448AFF3C9
:1001980000800123237010BD0C0000200000000027
:1001A8007417000808B5034B1BB103490348AFF3A4
:1001B800008008BD0000000010000020741700082F
:1001C80030B591B0202200210DEB020001F0C6FAF3
:1001D800002401940294039404940594012506953F
:1001E8004FF4803307930A9506A800F0FDFC0F230F
:1001F80001930295039404940594214601A801F003
:1002080035F811B030BD08B500F0B6FCFFF7D8FFDF
:1002180000F016F800F0B2F8002202214FF09040EA
:1002280001F0B8F9642000F0CBFC012202214FF064
:10023800904001F0AFF9642000F0C2FCECE7704791
:1002480030B58BB00024059406940794089409945B
:100258002A4B5A6942F400225A615A6902F4002270
:100268000192019A5A6942F480025A615A6902F469
:1002780080020292029A5A6942F400325A615A691B
:1002880002F400320392039A5A6942F480225A61B6
:100298005B6903F480230493049B224602214FF0F8
:1002A800904001F077F94FF46043059303250695D4
:1002B800079405A9124801F0A9F849F6DD730593DA
:1002C8000695079405A94FF0904001F09FF8022386
:1002D8000593012306930794089405A94FF09040CD
:1002E80001F094F84FF6F77305930695079405A95E
:1002F800044801F08BF80BB030BD00BF001002407D
:1003080000080048000400480368B3F1804F00D09B
:10031800704782B003F50433DA6942F00102DA610A
:10032800DB6903F001030193019B02B0704700B53C
:1003380087B0002301930293039304930593036802
:10034800B3F1804F02D007B05DF804FB03F5043326
:100358005A6942F400325A615B6903F4003300932E
:10036800009B20230193022302930123059301A9F3
:100378004FF0904001F04AF8E5E7000000B58FB073
:1003880000230A930B930C930D93079308930993F7
:1003980000930193029303930493059306932148D2
:1003A8004FF0804202604FF47A72426083606422A8
:1003B800C2600361836100F0D3F820BB4FF480531F
:1003C8000A930AA9174800F001FAF8B9154800F08D
:1003D800E1F8F0B900230793099307A9114800F041
:1003E8007DFBC8B960230093002201920292049217
:1003F80069460C4800F0D8FA88B90A48FFF797FF11
:100408000FB05DF804FBFFF71AFFD7E7FFF717FFF8
:10041800DCE7FFF714FFDDE7FFF711FFE2E7FFF77F
:100428000EFFEAE7280000207047FEE7FEE7FEE738
:10043800FEE770477047704708B500F0AFFB08BD8E
:1004480082B00A4B9A6942F001029A619A6902F0F5
:1004580001020092009ADA6942F08052DA61DB699F
:1004680003F080530193019B02B0704700100240D3
:1004780010B4036A046A24F001040462846924F055
:10048800F00444EA021223F00A030B438261036278
:100498005DF8044B704710B4036A23F0100303623D
:1004A8008469036A24F4704444EA023223F0A00306
:1004B80043EA0113826103625DF8044B7047836865
:1004C80023F0700341F007011943816070477047BA
:1004D8000368224A904206D0B0F1804F03D0A2F5BB
:1004E8009432904203D123F070034A6813431B4AA5
:1004F800904212D0B0F1804F0FD0A2F594329042C2
:100508000BD002F59E32904207D002F580629042ED
:1005180003D002F58062904203D123F44073CA6885
:10052800134323F080034A69134303608B68C36253
:100538000B688362094B98420BD003F5A05398428D
:1005480007D003F58063984203D003F5806398428F
:1005580001D10B690363012343617047002C0140FB
:10056800B0B110B5044690F83D3063B1022384F869
:100578003D30214651F8040BFFF7AAFF012384F808
:100588003D30002010BD80F83C30FFF7BDFEEDE7A0
:1005980001207047B0B110B5044690F83D3063B102
:1005A800022384F83D30214651F8040BFFF790FFF1
:1005B800012384F83D30002010BD80F83C30FFF75F
:1005C80086FFEDE70120704730B4036A23F001038A
:1005D8000362036A4468826922F4803222F073025B
:1005E8000D682A4323F002038D682B43184DA84257
:1005F8000BD005F5A055A84207D005F58065A8429F
:1006080003D005F58065A84205D123F00803CD681D
:100618002B4323F004030E4DA8420BD005F5A0553B
:10062800A84207D005F58065A84203D005F5806586
:10063800A84205D124F440754C692C438D692C439C
:10064800446082614A684263036230BC704700BFFD
:10065800002C014030B4036A23F010030362036ADC
:100668004468826922F0807222F4E6420D6842EA08
:10067800052223F020038D6843EA0513144DA84290
:100688001DD0134DA8420BD005F5A055A84207D0A0
:1006980005F58065A84203D005F58065A84207D115
:1006A80024F440644D6944EA85048D6944EA85046C
:1006B800446082614A688263036230BC704723F0F9
:1006C8008003CD6843EA051323F04003D9E700BF50
:1006D800002C014030B4036A23F480730362036A78
:1006E8004468C26922F4803222F073020D682A43FA
:1006F80023F400738D6843EA0523144DA8421DD0E6
:10070800124DA8420BD005F5A055A84207D005F513
:100718008065A84203D005F58065A84207D124F476
:1007280040544D6944EA05148D6944EA051444604F
:10073800C2614A68C263036230BC704723F4006335
:10074800CD6843EA052323F48063D9E7002C0140F0
:1007580030B4036A23F480530362026A4468C369AD
:1007680023F0807323F4E6430D6843EA052322F45B
:1007780000528D6842EA05320D4DA8420BD005F5AE
:10078800A055A84207D005F58065A84203D005F515
:100798008065A84204D124F480444D6944EA851454
:1007A8004460C3614B680364026230BC704700BF99
:1007B800002C014010B4846824F47F4442EA0323E7
:1007C8000B43234383605DF8044B704790F83C303B
:1007D800012B00F0828010B50446012380F83C30DC
:1007E800022380F83D30026890683D4B03409360D7
:1007F8000B68402B5DD010D9702B40D01FD8502BE0
:100808004DD0602B34D1CA6849682068FFF743FE91
:1008180060212068FFF753FE2AE0102B53D008D937
:10082800202B55D0302B23D130212068FFF747FEED
:100838001EE0EBB900212068FFF741FE18E0B3F590
:10084800805F0ED0B3F5005F12D1CB684A68896823
:100858002068FFF7AFFF2268936843F480439360F2
:1008680006E02268936823F4803323F0070393603B
:10087800012384F83D30002084F83C0010BDCB688B
:100888004A6889682068FFF795FF2268936823F40F
:10089800803323F0770343F077039360E8E7CA686F
:1008A80049682068FFF7E4FD50212068FFF707FE3C
:1008B800DEE7CA6849682068FFF7DAFD402120684A
:1008C800FFF7FDFDD4E710212068FFF7F8FDCFE71B
:1008D80020212068FFF7F3FDCAE70220704700BF18
:1008E8008800FEFF30B4036A23F480330362036A8E
:1008F8004468426D22F4803222F070020D682A4367
:1009080023F400338D6843EA05430D4DA8420BD00C
:1009180005F5A055A84207D005F58065A84203D083
:1009280005F58065A84204D124F480344D6944EA71
:100938000524446042654A688265036230BC70479A
:10094800002C014030B4036A23F480130362026A66
:100958004468436D23F0807323F4E0430D6843EA51
:10096800052322F400128D6842EA05520D4DA84273
:100978000BD005F5A055A84207D005F58065A8421B
:1009880003D005F58065A84204D124F480244D697C
:1009980044EA8524446043654B68C365026230BC01
:1009A800704700BF002C014038B590F83C30012B4F
:1009B80000F092800D460446012380F83C30022363
:1009C80080F83D30142A1ED8DFE802F00B1D1D1DEB
:1009D800241D1D1D381D1D1D4B1D1D1D5F1D1D1DAD
:1009E80072000068FFF7F0FD2268936943F008037E
:1009F80093612268936923F00403936122689369E1
:100A080029690B439361012384F83D30002084F861
:100A18003C0038BD0068FFF71DFE2268936943F467
:100A2800006393612268936923F480639361226869
:100A38009369296943EA01239361E4E70068FFF7B2
:100A480049FE2268D36943F00803D3612268D36959
:100A580023F00403D3612268D36929690B43D36166
:100A6800D1E70068FFF774FE2268D36943F4006396
:100A7800D3612268D36923F48063D3612268D36980
:100A8800296943EA0123D361BDE70068FFF72AFF1C
:100A98002268536D43F0080353652268536D23F0B1
:100AA800040353652268536D29690B435365AAE70C
:100AB8000068FFF747FF2268536D43F400635365EE
:100AC8002268536D23F4806353652268536D296946
:100AD80043EA0123536596E702209AE790F83C30F1
:100AE800012B1FD030B4012380F83C3002685368D2
:100AF80095680D4CA24210D023F070030C68234374
:100B080025F08004896821435360036899600023B5
:100B180080F83C30184630BC704723F470034C68AA
:100B28002343E9E702207047002C014010B5044632
:100B38000E4B18784FF47A73B3FBF0F30C4A106835
:100B4800B0FBF3F000F072FD68B90F2C01D9012059
:100B58000AE0002221464FF0FF3000F033FD054B3C
:100B68001C60002000E0012010BD00BF0000002034
:100B7800080000200400002008B5074A136843F065
:100B880010031360032000F00BFD0020FFF7CEFFD9
:100B9800FFF756FC002008BD00200240034A1168F8
:100BA800034B1B780B441360704700BF680000209C
:100BB80000000020014B1868704700BF6800002043
:100BC80038B50446FFF7F6FF0546B4F1FF3F02D0FB
:100BD800044B1B781C44FFF7EDFF401BA042FAD3DF
:100BE80038BD00BF00000020002800F0EB8270B57F
:100BF80082B00446036813F0010F3BD0B54B5B6825
:100C080003F00C03042B1ED0B24B5B6803F00C03FB
:100C1800082B13D06368B3F5803F68D0002B40F0F1
:100C2800928003F1804303F504331A6822F480327A
:100C38001A601A6822F480221A605DE0A54B5B688E
:100C480013F4803FE6D04FF4003393FAA3F3A14B9B
:100C580019684FF4003393FAA3F3B3FA83F303F05C
:100C68001F03012202FA03F30B4203D06368002B2F
:100C780000F0AA82236813F0020F00F0C580954B9C
:100C88005B6813F00C0F00F09C80924B5B6803F0DC
:100C98000C03082B00F08F802369002B00F0F280F2
:100CA800012292FAA2F3B3FA83F303F1845303F512
:100CB80084139B001A60FFF77DFF0546022393FA11
:100CC800A3F3844B1968022393FAA3F3B3FA83F3CB
:100CD80003F01F03012202FA03F30B4240F0C38022
:100CE800FFF768FF401B0228E8D9032075E2794A1C
:100CF800136843F480331360764AD36A23F00F03F2
:100D0800A1680B43D3626368002B36D0FFF752FF0C
:100D180005464FF4003393FAA3F36E4B19684FF46A
:100D2800003393FAA3F3B3FA83F303F01F0301220A
:100D380002FA03F319429DD1FFF73CFF401B6428D8
:100D4800E7D9032049E2B3F5A02F09D0614B1A680F
:100D580022F480321A601A6822F480221A60CBE7E3
:100D680003F18043A3F53C331A6842F480221A60E9
:100D78001A6842F480321A60BEE7FFF71BFF054687
:100D88004FF4003393FAA3F3524B19684FF400332E
:100D980093FAA3F3B3FA83F303F01F03012202FAD1
:100DA80003F319423FF466AFFFF704FF401B6428C2
:100DB800E6D9032011E2474B5B6813F4803F7FF4C8
:100DC8006BAF022393FAA3F3424B1968022393FAF9
:100DD800A3F3B3FA83F303F01F03012202FA03F328
:100DE800194203D02369934240F0F08139480368DF
:100DF80023F0F8036169F82292FAA2F2B2FA82F2B9
:100E080001FA02F213430360236813F0080F00F09D
:100E18008D80A369002B61D0012191FAA1F2B2FA69
:100E280082F22D4B13449B001960FFF7C3FE054661
:100E3800022393FAA3F293FAA3F293FAA3F2254AB0
:100E4800516A93FAA3F3B3FA83F303F01F03012261
:100E580002FA03F30B4269D1FFF7ACFE401B0228EC
:100E6800E6D90320B9E11B48036823F0F803616958
:100E7800F82292FAA2F2B2FA82F201FA02F21343CB
:100E88000360C1E7012393FAA3F3B3FA83F303F1F1
:100E9800845303F584139B0000221A60FFF78AFE2F
:100EA8000546022393FAA3F30A4B1968022393FA1F
:100EB800A3F3B3FA83F303F01F03012202FA03F347
:100EC8001942A1D0FFF776FE401B0228E9D903207A
:100ED80083E100BF0010024020819010012292FAA5
:100EE800A2F2B2FA82F2BF4B13449B0000221A60AE
:100EF800FFF760FE0546022393FAA3F293FAA3F2E2
:100F080093FAA3F2B84A516A93FAA3F3B3FA83F3B4
:100F180003F01F03012202FA03F30B4206D0FFF786
:100F280049FE401B0228E6D9032056E1236813F046
:100F3800040F00F0A980AC4BDB6913F0805F20D16F
:100F4800A94BDA6942F08052DA61DB6903F0805319
:100F58000193019B0125A54B1B6813F4807F12D0D8
:100F6800E368012B23D073BB03F1804303F50433FB
:100F78001A6A22F001021A621A6A22F004021A623C
:100F88001AE00025E7E7994A136843F48073136071
:100F9800FFF710FE0646954B1B6813F4807FDFD1E0
:100FA800FFF708FE801B6428F5D9032015E18E4A57
:100FB800136A43F001031362E368002B3CD0FFF788
:100FC800F9FD06462EE0052B09D0874B1A6A22F058
:100FD80001021A621A6A22F004021A62ECE7824BD2
:100FE8001A6A42F004021A621A6A42F001021A628C
:100FF800E2E7022393FAA3F37B4B596A022393FA9D
:10100800A3F3B3FA83F303F01F03012202FA03F3F5
:10101800194238D1FFF7CEFD801B41F28833984240
:1010280000F2D680022393FAA3F293FAA3F3002BDB
:10103800DFD06D4B196AE1E7FFF7BCFD064618E003
:10104800022393FAA3F3684B596A022393FAA3F392
:10105800B3FA83F303F01F03012202FA03F31942E0
:1010680011D0FFF7A7FD801B41F28833984200F2A8
:10107800B180022393FAA3F293FAA3F3002BDFD0F3
:10108800594B196AE1E7B5BBE369002B00F0A4806E
:10109800554A526802F00C02082A00F0A080022B80
:1010A8002FD04FF0807393FAA3F3B3FA83F303F1CD
:1010B800845303F584139B0000221A60FFF77AFD1E
:1010C80004464FF0007393FAA3F3474B19684FF0A7
:1010D800007393FAA3F3B3FA83F303F01F03012217
:1010E80002FA03F319426BD0FFF764FD001B0228D4
:1010F800E7D9032071E03C4AD36923F08053D361D8
:10110800C2E74FF0807393FAA3F3B3FA83F303F1C2
:10111800845303F584139B0000221A60FFF74AFDED
:1011280005464FF0007393FAA3F32F4B19684FF05D
:10113800007393FAA3F3B3FA83F303F01F030122B6
:1011480002FA03F3194206D0FFF734FD401B0228C8
:10115800E7D9032041E024494B6823F47413626AF9
:10116800206A024313434B604FF0807393FAA3F352
:10117800B3FA83F303F1845303F584139B0001222C
:101188001A60FFF717FD04464FF0007393FAA3F3B4
:10119800154B19684FF0007393FAA3F3B3FA83F36E
:1011A80003F01F03012202FA03F3194206D1FFF7E5
:1011B80001FD001B0228E7D903200EE000200CE007
:1011C80000200AE001207047012006E0012004E029
:1011D800032002E0032000E0002002B070BD0120DF
:1011E800FBE700BF20819010001002400070004013
:1011F800184B5A6802F00C03042B26D0082B26D172
:1012080002F470114FF4701393FAA3F3B3FA83F353
:1012180021FA03F31049C85C0E4BDB6A03F00F0395
:101228000F2191FAA1F1B1FA81F1CB400B49C95CC8
:1012380012F4803F05D00A4BB3FBF1F300FB03F037
:101248007047084B03FB00F0704705487047064895
:10125800704700BF001002408C1700089C17000858
:101268000024F40000093D0000127A00002800F074
:10127800BD8070B50446614B1B6803F007038B42C1
:101288000BD25E4A136823F007030B4313601368FD
:1012980003F007038B4240F0AB80236813F0020F82
:1012A80006D0574A536823F0F003A06803435360FD
:1012B8000D46236813F0010F5AD06368012B2DD017
:1012C800022B40D0022292FAA2F24D4A1068022262
:1012D80092FAA2F2B2FA82F202F01F02012101FA96
:1012E80002F2104200F0868045494A6822F0030263
:1012F80013434B60FFF75EFC0646414B5B6803F007
:101308000C036268B3EB820F32D0FFF753FC801BEB
:1013180041F288339842F0D9032066E04FF4003256
:1013280092FAA2F2364A10684FF4003292FAA2F208
:10133800B2FA82F202F01F02012101FA02F202421D
:10134800D2D1012051E04FF0007292FAA2F22C4A59
:1013580010684FF0007292FAA2F2B2FA82F202F02A
:101368001F02012101FA02F21042BDD101203CE026
:10137800224B1B6803F00703AB420AD91F4A1368C4
:1013880023F007032B431360136803F00703AB42F2
:1013980032D1236813F0040F06D0194A536823F496
:1013A800E063E1680B435360236813F0080F07D02C
:1013B800134A536823F46053216943EAC103536015
:1013C800FFF716FF0E4B5B6803F0F003F02292FA6A
:1013D800A2F2B2FA82F2D3400A4AD35CD8400A4B4E
:1013E80018600020FFF7A2FB002070BD01207047A5
:1013F8000120FAE70120F8E70120F6E70020024083
:1014080000100240AC17000808000020F0B482B0B9
:10141800002336E0032400E00024B4403C430235B6
:10142800584E46F82540584C2568D44304EA05062A
:101438004F6817F4803F01D042EA0506524D2E60EE
:101448006D6804EA05064F6817F4003F01D042EAC8
:1014580005064D4D6E60AD6804EA05064F6817F441
:10146800801F01D042EA0506474DAE60ED682C406A
:101478004E6816F4001F01D042EA0504424AD460BF
:1014880001330A6832FA03F478D001249C402240E0
:10149800F6D04D68022D01D0122D10D1DE08083685
:1014A80050F826C003F00705AF000F25BD402CEA11
:1014B800050C0D69BD4045EA0C0540F82650066844
:1014C8005F000325BD40ED4305EA060C4E6806F0B3
:1014D8000306BE4046EA0C0606604E6806F1FF3C6D
:1014E800BCF1010F03D9112E01D0122E10D186683C
:1014F80005EA060CCE68BE4046EA0C0686604668D9
:1015080026EA04044E68C6F300169E402643466049
:10151800C46825408C68BC402C43C4604C6814F0F7
:10152800805FADD0194CA56945F00105A561A46996
:1015380004F001040194019C9D08AE1C114C54F860
:10154800267003F00304A6000F24B44027EA04071A
:10155800B0F1904F3FF460AF0D4CA0420AD004F5B3
:101568008064A04208D004F58064A0423FF452AFE2
:10157800052452E7012450E702244EE702B0F0BCEC
:10158800704700BF00000140000401400010024005
:10159800000400480AB18161704781627047000009
:1015A800074AD36823F4E0631B041B0C000200F411
:1015B800E060184340F0BF6040F40030D0607047EE
:1015C80000ED00E030B4174BDB68C3F30223C3F12E
:1015D8000704042C28BF04241D1D062D01D9033B34
:1015E80000E000234FF0FF3505FA04F421EA040176
:1015F800994005FA03F322EA03031943002809DB9B
:101608000901C9B200F1604000F5614080F800139B
:1016180030BC704700F00F000901C9B2024B1954E1
:10162800F6E700BF00ED00E014ED00E00138B0F18E
:10163800807F0AD2064B5860064AF02182F82310B0
:101648000020986007221A6070470120704700BF89
:1016580010E000E000ED00E01549D1F8883043F4CF
:101668007003C1F88830134B1A6842F001021A60FF
:101678005868114A02405A601A6822F0847222F4AB
:1016880080321A601A6822F480221A605A6822F49A
:10169800FE025A60DA6A22F00F02DA62186B074A11
:1016A80002401A6300229A604FF000638B60704713
:1016B80000ED00E0001002400CC07FF8CCFC00FFF9
:1016C800DFF834D0002103E00C4B5B584350043161
:1016D8000B480C4B42189A42F6D30B4A02E00023FF
:1016E80042F8043B094B9A42F9D3FFF7B5FF00F0E3
:1016F80011F8FEF788FDFEE700300020C417000847
:10170800000000200C0000200C0000206C000020CD
:10171800FEE7000070B50D4D0D4C641BA4100026AB
:10172800A64209D10B4D0C4C00F020F8641BA41004
:101738000026A64205D170BD55F8043B98470136EE
:10174800EEE755F8043B98470136F2E7BC17000866
:10175800BC170008BC170008C0170008024403465D
:10176800934200D1704703F8011BF9E7F8B500BFB1
:10177800F8BC08BC9E467047F8B500BFF8BC08BC6A
:041788009E467047C2
:10178C0002030405060708090A0B0C0D0E0F1010B6
:10179C000102030405060708090A0B0C0D0E0F10B5
:1017AC000000000000000000010203040607080905
:0417BC00AD01000873
:0417C0008901000893
:0C17C400010000001000000000127A007C
:04000005080016C910
:00000001FF
